:020000040000FA
:100000000C9462000C948A000C948A000C948A0070
:100010000C948A000C948A000C948A000C948A0038
:100020000C948A000C948A000C948A000C94AF04FF
:100030000C948A000C948A000C948A000C948A0018
:100040000C940D040C948A000C947D040C945704B9
:100050000C948A000C948A000C948A000C948A00F8
:100060000C948A000C948A000000000023002600F3
:10007000290000000000240027002A0000000000E2
:10008000250028002B0004040404040404040202D4
:100090000202020203030303030301020408102007
:1000A0004080010204081020010204081020000012
:1000B0000008000201000003040700000000000027
:1000C0000000B00511241FBECFEFD8E0DEBFCDBFCA
:1000D00011E0A0E0B1E0E6E0F2E102C005900D928F
:1000E000A831B107D9F721E0A8E1B1E001C01D9224
:1000F000A73EB207E1F710E0C2E6D0E004C02197C6
:10010000FE010E94FB08C136D107C9F70E940D0607
:100110000C9401090C9400008F929F92AF92BF92B1
:10012000FF920F931F93CF93DF93F090E4012BE0A6
:100130002F1508F455C02091E60108E512E0021BD6
:10014000110927FD1395000F111F000F111F20919A
:10015000E501C8E8D0E0C21BD10927FDD395CC0F3B
:10016000DD1FCC0FDD1F4E010D2E000CAA08BB08B1
:10017000DC01853B910514F0A4EBB0E0B7FF02C0B1
:10018000B0E0A0E09801012E000C440B550B28199B
:1001900039094A095B090E94850724EB30E040E0F9
:1001A00050E00E945B07820E931EA41EB51E8C16A3
:1001B0009D062CF0E801801691060CF4E4012297CC
:1001C000CC0FDD1F2FB7F8948F2D90E0FC01EE0FC0
:1001D000FF1FE80FF91FE154FE4FD283C1832FBFE9
:1001E000DF91CF911F910F91FF90BF90AF909F90A3
:1001F0008F90089590E0FC01E255FF4F2491FC019F
:10020000E656FF4F3491FC01EA57FF4FE491EE238D
:10021000C9F0222339F0233001F1A8F4213019F17B
:10022000223029F1F0E0EE0FFF1FE458FF4FA591B7
:10023000B4918FB7F894EC91611126C030953E23AC
:100240003C938FBF08952730A9F02830C9F024309F
:1002500049F7809180008F7D03C0809180008F7767
:1002600080938000DFCF84B58F7784BDDBCF84B5EA
:100270008F7DFBCF8091B0008F778093B000D2CF7D
:100280008091B0008F7DF9CF3E2BDACFCF93DF93F3
:1002900090E0FC01E656FF4F24918A579F4FFC01E6
:1002A00084918823D1F090E0880F991FFC01EE58CB
:1002B000FF4FA591B491FC01E458FF4FC591D49133
:1002C00061110EC09FB7F8948C91E22FE0958E23B8
:1002D0008C932881E223E8839FBFDF91CF9108951B
:1002E0008FB7F894EC91E22BEC938FBFF6CF3FB72A
:1002F000F89480911E0190911F01A0912001B0916E
:10030000210126B5A89B05C02F3F19F00196A11D1C
:10031000B11D3FBFBA2FA92F982F8827BC01CD014F
:10032000620F711D811D911D42E0660F771F881FAE
:10033000991F4A95D1F708958F929F92AF92BF92DD
:10034000CF92DF92EF92FF920E9477014B015C0106
:1003500084E6C82ED12CE12CF12C0E94770168197B
:1003600079098A099B09683E734081059105A8F3C4
:1003700021E0C21AD108E108F10888EE880E83E076
:10038000981EA11CB11CC114D104E104F10429F789
:10039000FF90EF90DF90CF90BF90AF909F908F90A5
:1003A0000895AF92BF92CF92DF92EF92FF920F9398
:1003B0001F93CF93DF936C017B018B01040F151FFB
:1003C000EB015E01AE18BF08C017D10759F0699163
:1003D000D601ED91FC910190F081E02DC6010995C7
:1003E000892B79F7C501DF91CF911F910F91FF9074
:1003F000EF90DF90CF90BF90AF900895FC01538DA8
:10040000448D252F30E0842F90E0821B930B5417EE
:1004100010F0CF96089501970895FC01918D828D7B
:10042000981761F0A28DAE0FBF2FB11D5D968C9114
:10043000928D9F5F9F73928F90E008958FEF9FEF53
:100440000895FC01918D828D981731F0828DE80F0F
:10045000F11D858D90E008958FEF9FEF0895FC01C9
:10046000918D228D892F90E0805C9F4F821B910996
:100470008F739927089582E291E00E942F0221E074
:10048000892B09F420E0822F089580E090E0892BE9
:1004900029F00E943B0281110C9400000895FC0198
:1004A000A48DA80FB92FB11DA35ABF4F2C91848DD5
:1004B00090E001968F739927848FA689B7892C9332
:1004C000A089B1898C91837080648C93938D848D85
:1004D000981306C00288F389E02D80818F7D808388
:1004E0000895EF92FF920F931F93CF93DF93EC0148
:1004F00081E0888F9B8D8C8D98131AC0E889F989CB
:10050000808185FF15C09FB7F894EE89FF896083CD
:10051000E889F98980818370806480839FBF81E04E
:1005200090E0DF91CF911F910F91FF90EF90089590
:10053000F62E0B8D10E00F5F1F4F0F731127E02E6B
:100540008C8D8E110CC00FB607FCFACFE889F989A3
:10055000808185FFF5CFCE010E944F02F1CFEB8D58
:10056000EC0FFD2FF11DE35AFF4FF0829FB7F89477
:100570000B8FEA89FB8980818062CFCFCF93DF9395
:10058000EC01888D8823B9F0AA89BB89E889F989AB
:100590008C9185FD03C0808186FD0DC00FB607FCE0
:1005A000F7CF8C9185FFF2CF808185FFEDCFCE0113
:1005B0000E944F02E9CFDF91CF91089583339105D7
:1005C00084F060E083E00E94FA0061E084E00E9431
:1005D000FA0060E085E00E94FA0060E087E00C9499
:1005E000FA0045972CF160E083E00E94FA0060E099
:1005F00084E00E94FA0061E085E00E94FA002FB7D3
:10060000F89460911A0170911B0180911C019091E6
:100610001D012FBF2CE231E040E050E00E948D0729
:1006200021E0663971058105910528F120E023C09C
:1006300061E083E00E94FA0060E084E00E94FA003A
:1006400060E085E00E94FA002FB7F89460911A01EB
:1006500070911B0180911C0190911D012FBF26E913
:1006600030E040E050E00E948D0721E06B347105DE
:1006700081059105D8F6622FB1CFFC0101900020D1
:10068000E9F73197AF01481B590BBC0182E291E0B9
:100690000C94D1018F929F92AF92BF92CF92DF9232
:1006A000EF92FF920F931F93CF93DF93CDB7DEB7F7
:1006B000A1970FB6F894DEBF0FBECDBF6B017C01D2
:1006C000F7FE41C06DE282E291E00E9471028C016E
:1006D00022273327A9012C193D094E095F0919A2C8
:1006E000CE0181967C019AE0892E912CA12CB12C0F
:1006F000CA01B901A50194010E948D07605DF7014F
:1007000062937F01211531054105510589F790E07C
:1007100080E0309719F0CF010E943D03800F911FB8
:10072000A1960FB6F894DEBF0FBECDBFDF91CF917B
:100730001F910F91FF90EF90DF90CF90BF90AF90FF
:100740009F908F900895AC019B0119A28E010F5DBF
:100750001F4F8AE0C82ED12CE12CF12CCA01B9011F
:10076000A70196010E948D07605DF80162938F01D9
:10077000211531054105510589F790E080E030975A
:1007800079F2CF010E943D03CBCF0F931F9360E01E
:1007900089E00E94FA0083E090E00197F1F761E0C0
:1007A00089E00E94FA0083E290E00197F1F760E0AF
:1007B00089E00E94FA00E4EAF0E06491E0E9F0E008
:1007C000E491F0E0EE0FFF1FE859FF4F85919491FF
:1007D00000E315E720E030E0462F0E946B0561152D
:1007E00071058105910529F06F5F7F4F8F4F9F4FF6
:1007F0009F700E94F60726E933E44BE05DE30E9418
:100800005A0820E030E040E05FE30E945A080E946E
:10081000BE07CB011F910F9108951F920F920FB643
:100820000F9211242F933F938F939F93AF93BF9376
:1008300080911A0190911B01A0911C01B0911D01A2
:100840003091190123E0230F2D3758F50196A11D92
:10085000B11D2093190180931A0190931B01A0935D
:100860001C01B0931D0180911E0190911F01A09168
:100870002001B09121010196A11DB11D80931E019F
:1008800090931F01A0932001B0932101BF91AF91DC
:100890009F918F913F912F910F900FBE0F901F90BE
:1008A000189526E8230F0296A11DB11DD2CF1F92E5
:1008B0000F920FB60F9211242F933F934F935F9394
:1008C0006F937F938F939F93AF93BF93EF93FF9318
:1008D00082E291E00E944F02FF91EF91BF91AF91B0
:1008E0009F918F917F916F915F914F913F912F9148
:1008F0000F900FBE0F901F9018951F920F920FB67A
:100900000F9211242F938F939F93EF93FF93E09176
:100910003201F09133018081E0913801F091390189
:1009200082FD1BC0908180913B018F5F8F7320916E
:100930003C01821741F0E0913B01F0E0EE5DFE4F9B
:10094000958F80933B01FF91EF919F918F912F9114
:100950000F900FBE0F901F9018958081F4CF1F92BB
:100960000F920FB60F9211242F933F934F935F93E3
:100970006F937F938F939F93AF93BF93CF93DF93A7
:10098000EF93FF9380911801C091E301D0E087FFBE
:1009900024C01092850010928400809118018F5F0E
:1009A0008093180180911801082E000C990B8C1768
:1009B0009D0724F4809118018C30C4F1809184004B
:1009C00090918500049680349C4908F47AC0809107
:1009D000840090918500049676C080911801082EBD
:1009E000000C990B8C179D07C4F6E09118018E2F0F
:1009F000EE0F990BFC01EE0FFF1FE80FF91FE154FA
:100A0000FE4F808186FFC9CFE09118018E2FEE0F37
:100A1000990BFC01EE0FFF1FE80FF91FE154FE4F89
:100A2000808160E08F730E94FA00B7CF209184002C
:100A300030918500E09118018E2FEE0F990BFC018B
:100A4000EE0FFF1FE80FF91FE154FE4F81819281E5
:100A5000820F931F9093890080938800E091180182
:100A60008E2FEE0F990BFC01EE0FFF1FE80FF91F01
:100A7000E154FE4F808186FF11C0E09118018E2F56
:100A8000EE0F990BFC01EE0FFF1FE80FF91FE15469
:100A9000FE4F808161E08F730E94FA00FF91EF9119
:100AA000DF91CF91BF91AF919F918F917F916F9186
:100AB0005F914F913F912F910F900FBE0F901F901C
:100AC000189580E49CE990938900809388008FEFCB
:100AD00080931801E3CFCF92DF92EF92FF920F93B2
:100AE0001F93E82FF92F05C0015011092109310981
:100AF00061F1908196239417B9F305C00150110953
:100B00002109310911F1908196239413F7CFC12C5B
:100B1000D12CE12CF12C0AC08FEFC81AD80AE80AB0
:100B2000F80A0C151D052E053F0579F080818623F6
:100B3000841791F36C2D7D2D8E2D9F2D1F910F917C
:100B4000FF90EF90DF90CF90089560E070E080E03C
:100B500090E01F910F91FF90EF90DF90CF9008955C
:100B6000109225011092240188EE93E0A0E0B0E0FD
:100B70008093260190932701A0932801B093290127
:100B800084E091E0909323018093220185EC90E032
:100B900090932F0180932E0184EC90E0909331018B
:100BA0008093300180EC90E0909333018093320188
:100BB00081EC90E0909335018093340182EC90E0D9
:100BC000909337018093360186EC90E09093390141
:100BD0008093380110923B0110923C0110923D012C
:100BE00010923E018091E3018C3098F491E0980FCF
:100BF0009093E3018093E40190E0FC01EE0FFF1F6E
:100C0000E80FF91FE154FE4F88EB9BE0928381834C
:100C100008958FEF8093E4010895789484B58260FD
:100C200084BD84B5816084BD85B5826085BD85B590
:100C3000816085BD80916E00816080936E0010920E
:100C40008100809181008260809381008091810089
:100C5000816080938100809180008160809380001A
:100C60008091B10084608093B1008091B000816078
:100C70008093B00080917A00846080937A008091A4
:100C80007A00826080937A0080917A0081608093FC
:100C90007A0080917A00806880937A001092C10077
:100CA00061E089E00E94460160E08AE00E9446011E
:100CB00061E083E00E94460161E084E00E94460119
:100CC00061E085E00E94460161E087E00E94460104
:100CD0008091E4018C3008F051C061E086E00E9410
:100CE00046018091E401282F30E0F901EE0FFF1F4B
:100CF000E20FF31FE154FE4F9081907C9660908349
:100D00001092E5011092E6012CE0622F0E94EF089C
:100D1000829FB001112430E020E0AB01420F531F4D
:100D2000FA01EE0FFF1FE40FF51FE154FE4F908113
:100D300096FD16C02F5F3F4F2C30310571F78111A2
:100D40000FC01092800082E0809381001092850095
:100D500010928400B19A80916F00826080936F003E
:100D6000E091E4018E2F90E0FC01EE0FFF1FE80FF1
:100D7000F91FE154FE4F808180648083E09132014D
:100D8000F091330182E08083E0912E01F0912F01F8
:100D90001082E0913001F09131018FEC808310924C
:100DA0003A01E0913601F091370186E08083E091CD
:100DB0003401F0913501808180618083E0913401BC
:100DC000F0913501808188608083E0913401F09159
:100DD0003501808180688083E0913401F091350194
:100DE00080818F7D8083C0E0D0E0C12CD12C760142
:100DF000C6010E948C000E94C5038C01C701B60188
:100E00000E944A0382E191E00E943D03B801012E55
:100E1000000C880B990B0E944A0384E191E00E9428
:100E20003D03C8010E94DE020E949C0188E0C80EBA
:100E3000D11CE11CF11C88EBC816D104E104F104BB
:100E4000B9F684EBC82ED12CE12CF12CC6010E94FE
:100E50008C000E94C5038C01C701B6010E944A03A1
:100E600082E191E00E943D03B801012E000C880B45
:100E7000990B0E944A0384E191E00E943D03C8015E
:100E80000E94DE020E949C0188E0C81AD108E10895
:100E9000F1088CEFC8168FEFD806E806F806B1F611
:100EA000209709F4A2CF0E943B02882309F49DCF2A
:100EB0000E9400009ACF052E97FB1EF400940E941A
:100EC000720757FD07D00E948D0707FC03D04EF430
:100ED0000C94720750954095309521953F4F4F4F98
:100EE0005F4F089590958095709561957F4F8F4FD6
:100EF0009F4F08950E94AF07A59F900DB49F900D3E
:100F0000A49F800D911D11240895B7FF0C947A07BA
:100F10000E947A07821B930B0895A1E21A2EAA1B46
:100F2000BB1BFD010DC0AA1FBB1FEE1FFF1FA21799
:100F3000B307E407F50720F0A21BB30BE40BF50B96
:100F4000661F771F881F991F1A9469F7609570951F
:100F5000809590959B01AC01BD01CF010895A29FA2
:100F6000B001B39FC001A39F700D811D1124911D7D
:100F7000B29F700D811D1124911D08950E94C50717
:100F80006894B1110C94540808950E94390888F0AF
:100F90009F5798F0B92F9927B751B0F0E1F0660F3D
:100FA000771F881F991F1AF0BA95C9F714C0B1307E
:100FB00091F00E945308B1E008950C945308672FF4
:100FC000782F8827B85F39F0B93FCCF386957795AD
:100FD0006795B395D9F73EF4909580957095619596
:100FE0007F4F8F4F9F4F0895E89409C097FB3EF4C1
:100FF00090958095709561957F4F8F4F9F4F992366
:10100000A9F0F92F96E9BB279395F69587957795E3
:101010006795B795F111F8CFFAF4BB0F11F460FFA3
:101020001BC06F5F7F4F8F4F9F4F16C0882311F0FB
:1010300096E911C0772321F09EE8872F762F05C00F
:10104000662371F096E8862F70E060E02AF09A95AA
:10105000660F771F881FDAF7880F9695879597F99F
:10106000089557FD9058440F551F59F05F3F71F098
:101070004795880F97FB991F61F09F3F79F08795FF
:101080000895121613061406551FF2CF4695F1DF88
:1010900008C0161617061806991FF1CF8695710518
:1010A000610508940895E894BB2766277727CB014C
:1010B00097F908950E946D080C94DE080E94D008EC
:1010C00038F00E94D70820F0952311F00C94C7083F
:1010D0000C94CD0811240C9454080E94310870F32C
:1010E000959FC1F3950F50E0551F629FF001729FCD
:1010F000BB27F00DB11D639FAA27F00DB11DAA1FDC
:10110000649F6627B00DA11D661F829F2227B00D28
:10111000A11D621F739FB00DA11D621F839FA00DB3
:10112000611D221F749F3327A00D611D231F849F03
:10113000600D211D822F762F6A2F11249F5750405A
:101140009AF0F1F088234AF0EE0FFF1FBB1F661FD5
:10115000771F881F91505040A9F79E3F510580F09E
:101160000C94C7080C9454085F3FE4F3983ED4F302
:10117000869577956795B795F795E7959F5FC1F742
:10118000FE2B880F911D9695879597F9089597F9ED
:101190009F6780E870E060E008959FEF80EC08951D
:1011A00000240A9416161706180609060895002446
:1011B0000A9412161306140605060895092E0394C0
:1011C000000C11F4882352F0BB0F40F4BF2B11F434
:1011D00060FF04C06F5F7F4F8F4F9F4F0895991B33
:1011E00079E004C0991F961708F0961B881F7A951E
:1011F000C9F780950895EE0FFF1F0590F491E02D3B
:101200000994F894FFCF000000007102D101FE01A3
:0E121000BE022F020D0221022C000D0A00006A
:107E0000112484B714BE81FFF0D085E080938100F7
:107E100082E08093C00088E18093C10086E0809377
:107E2000C20080E18093C4008EE0C9D0259A86E02C
:107E300020E33CEF91E0309385002093840096BBD3
:107E4000B09BFECF1D9AA8958150A9F7CC24DD24C4
:107E500088248394B5E0AB2EA1E19A2EF3E0BF2EE7
:107E6000A2D0813461F49FD0082FAFD0023811F036
:107E7000013811F484E001C083E08DD089C08234E0
:107E800011F484E103C0853419F485E0A6D080C0E4
:107E9000853579F488D0E82EFF2485D0082F10E0AE
:107EA000102F00270E291F29000F111F8ED06801E7
:107EB0006FC0863521F484E090D080E0DECF843638
:107EC00009F040C070D06FD0082F6DD080E0C81688
:107ED00080E7D80618F4F601B7BEE895C0E0D1E017
:107EE00062D089930C17E1F7F0E0CF16F0E7DF06D8
:107EF00018F0F601B7BEE89568D007B600FCFDCFD4
:107F0000A601A0E0B1E02C9130E011968C91119780
:107F100090E0982F8827822B932B1296FA010C0160
:107F200087BEE89511244E5F5F4FF1E0A038BF0790
:107F300051F7F601A7BEE89507B600FCFDCF97BE46
:107F4000E89526C08437B1F42ED02DD0F82E2BD052
:107F50003CD0F601EF2C8F010F5F1F4F84911BD097
:107F6000EA94F801C1F70894C11CD11CFA94CF0C13
:107F7000D11C0EC0853739F428D08EE10CD085E9AC
:107F80000AD08FE07ACF813511F488E018D01DD067
:107F900080E101D065CF982F8091C00085FFFCCF94
:107FA0009093C60008958091C00087FFFCCF809118
:107FB000C00084FD01C0A8958091C6000895E0E648
:107FC000F0E098E1908380830895EDDF803219F02E
:107FD00088E0F5DFFFCF84E1DECF1F93182FE3DFCA
:107FE0001150E9F7F2DF1F91089580E0E8DFEE27F6
:047FF000FF270994CA
:027FFE00040479
:00000001FF
